{
	"Security/Reentrancy.sol": {
		"Attacker": {
			"abi": [
				{
					"inputs": [
						{
							"internalType": "address",
							"name": "_bank",
							"type": "address"
						}
					],
					"stateMutability": "nonpayable",
					"type": "constructor"
				},
				{
					"inputs": [],
					"name": "bank",
					"outputs": [
						{
							"internalType": "contract Bank",
							"name": "",
							"type": "address"
						}
					],
					"stateMutability": "view",
					"type": "function"
				},
				{
					"inputs": [],
					"name": "checkBalance",
					"outputs": [
						{
							"internalType": "uint256",
							"name": "",
							"type": "uint256"
						}
					],
					"stateMutability": "view",
					"type": "function"
				},
				{
					"inputs": [],
					"name": "sendEther",
					"outputs": [],
					"stateMutability": "payable",
					"type": "function"
				},
				{
					"inputs": [],
					"name": "withdrawEther",
					"outputs": [],
					"stateMutability": "nonpayable",
					"type": "function"
				}
			],
			"devdoc": {
				"kind": "dev",
				"methods": {},
				"version": 1
			},
			"evm": {
				"assembly": "    /* \"Security/Reentrancy.sol\":494:890  contract Attacker {\r... */\n  mstore(0x40, 0x80)\n    /* \"Security/Reentrancy.sol\":539:650  constructor(address _bank) {\r... */\n  callvalue\n  dup1\n  iszero\n  tag_1\n  jumpi\n  0x00\n  dup1\n  revert\ntag_1:\n  pop\n  mload(0x40)\n  sub(codesize, bytecodeSize)\n  dup1\n  bytecodeSize\n  dup4\n  codecopy\n  dup2\n  add\n  0x40\n  dup2\n  swap1\n  mstore\n  tag_2\n  swap2\n  tag_3\n  jump\t// in\ntag_2:\n    /* \"Security/Reentrancy.sol\":627:631  bank */\n  0x00\n    /* \"Security/Reentrancy.sol\":627:645  bank = Bank(_bank) */\n  dup1\n  sload\n  not(sub(shl(0xa0, 0x01), 0x01))\n  and\n  sub(shl(0xa0, 0x01), 0x01)\n  swap3\n  swap1\n  swap3\n  and\n  swap2\n  swap1\n  swap2\n  or\n  swap1\n  sstore\n    /* \"Security/Reentrancy.sol\":494:890  contract Attacker {\r... */\n  jump(tag_7)\n    /* \"#utility.yul\":14:304   */\ntag_3:\n    /* \"#utility.yul\":84:90   */\n  0x00\n    /* \"#utility.yul\":137:139   */\n  0x20\n    /* \"#utility.yul\":125:134   */\n  dup3\n    /* \"#utility.yul\":116:123   */\n  dup5\n    /* \"#utility.yul\":112:135   */\n  sub\n    /* \"#utility.yul\":108:140   */\n  slt\n    /* \"#utility.yul\":105:157   */\n  iszero\n  tag_9\n  jumpi\n    /* \"#utility.yul\":153:154   */\n  0x00\n    /* \"#utility.yul\":150:151   */\n  dup1\n    /* \"#utility.yul\":143:155   */\n  revert\n    /* \"#utility.yul\":105:157   */\ntag_9:\n    /* \"#utility.yul\":179:195   */\n  dup2\n  mload\n  sub(shl(0xa0, 0x01), 0x01)\n    /* \"#utility.yul\":224:255   */\n  dup2\n  and\n    /* \"#utility.yul\":214:256   */\n  dup2\n  eq\n    /* \"#utility.yul\":204:274   */\n  tag_10\n  jumpi\n    /* \"#utility.yul\":270:271   */\n  0x00\n    /* \"#utility.yul\":267:268   */\n  dup1\n    /* \"#utility.yul\":260:272   */\n  revert\n    /* \"#utility.yul\":204:274   */\ntag_10:\n    /* \"#utility.yul\":293:298   */\n  swap4\n    /* \"#utility.yul\":14:304   */\n  swap3\n  pop\n  pop\n  pop\n  jump\t// out\ntag_7:\n    /* \"Security/Reentrancy.sol\":494:890  contract Attacker {\r... */\n  dataSize(sub_0)\n  dup1\n  dataOffset(sub_0)\n  0x00\n  codecopy\n  0x00\n  return\nstop\n\nsub_0: assembly {\n        /* \"Security/Reentrancy.sol\":494:890  contract Attacker {\r... */\n      mstore(0x40, 0x80)\n      jumpi(tag_1, lt(calldatasize, 0x04))\n      shr(0xe0, calldataload(0x00))\n      dup1\n      0x0e29df22\n      eq\n      tag_2\n      jumpi\n      dup1\n      0x7362377b\n      eq\n      tag_3\n      jumpi\n      dup1\n      0x76cdb03b\n      eq\n      tag_4\n      jumpi\n      dup1\n      0xc71daccb\n      eq\n      tag_5\n      jumpi\n    tag_1:\n      0x00\n      dup1\n      revert\n        /* \"Security/Reentrancy.sol\":653:732  function sendEther() external payable {\r... */\n    tag_2:\n      tag_6\n      tag_7\n      jump\t// in\n    tag_6:\n      stop\n        /* \"Security/Reentrancy.sol\":735:794  function withdrawEther() external {\r... */\n    tag_3:\n      callvalue\n      dup1\n      iszero\n      tag_8\n      jumpi\n      0x00\n      dup1\n      revert\n    tag_8:\n      pop\n      tag_6\n      tag_10\n      jump\t// in\n        /* \"Security/Reentrancy.sol\":519:535  Bank public bank */\n    tag_4:\n      callvalue\n      dup1\n      iszero\n      tag_11\n      jumpi\n      0x00\n      dup1\n      revert\n    tag_11:\n      pop\n      sload(0x00)\n      tag_12\n      swap1\n      sub(shl(0xa0, 0x01), 0x01)\n      and\n      dup2\n      jump\n    tag_12:\n      mload(0x40)\n      sub(shl(0xa0, 0x01), 0x01)\n        /* \"#utility.yul\":189:244   */\n      swap1\n      swap2\n      and\n        /* \"#utility.yul\":171:245   */\n      dup2\n      mstore\n        /* \"#utility.yul\":159:161   */\n      0x20\n        /* \"#utility.yul\":144:162   */\n      add\n        /* \"Security/Reentrancy.sol\":519:535  Bank public bank */\n    tag_14:\n      mload(0x40)\n      dup1\n      swap2\n      sub\n      swap1\n      return\n        /* \"Security/Reentrancy.sol\":797:887  function checkBalance() external view returns(uint) {\r... */\n    tag_5:\n      callvalue\n      dup1\n      iszero\n      tag_16\n      jumpi\n      0x00\n      dup1\n      revert\n    tag_16:\n      pop\n      mload(0x40)\n        /* \"Security/Reentrancy.sol\":861:882  address(this).balance */\n      selfbalance\n        /* \"#utility.yul\":402:427   */\n      dup2\n      mstore\n        /* \"#utility.yul\":390:392   */\n      0x20\n        /* \"#utility.yul\":375:393   */\n      add\n        /* \"Security/Reentrancy.sol\":797:887  function checkBalance() external view returns(uint) {\r... */\n      tag_14\n        /* \"#utility.yul\":256:433   */\n      jump\n        /* \"Security/Reentrancy.sol\":653:732  function sendEther() external payable {\r... */\n    tag_7:\n        /* \"Security/Reentrancy.sol\":696:700  bank */\n      0x00\n      dup1\n      sload\n      swap1\n      0x0100\n      exp\n      swap1\n      div\n      sub(shl(0xa0, 0x01), 0x01)\n      and\n      sub(shl(0xa0, 0x01), 0x01)\n        /* \"Security/Reentrancy.sol\":696:708  bank.deposit */\n      and\n      0xd0e30db0\n        /* \"Security/Reentrancy.sol\":715:724  msg.value */\n      callvalue\n        /* \"Security/Reentrancy.sol\":696:727  bank.deposit{value:msg.value}() */\n      mload(0x40)\n      dup3\n      0xffffffff\n      and\n      0xe0\n      shl\n      dup2\n      mstore\n      0x04\n      add\n      0x00\n      mload(0x40)\n      dup1\n      dup4\n      sub\n      dup2\n      dup6\n      dup9\n      dup1\n      extcodesize\n      iszero\n      dup1\n      iszero\n      tag_22\n      jumpi\n      0x00\n      dup1\n      revert\n    tag_22:\n      pop\n      gas\n      call\n      iszero\n      dup1\n      iszero\n      tag_24\n      jumpi\n      returndatasize\n      0x00\n      dup1\n      returndatacopy\n      revert(0x00, returndatasize)\n    tag_24:\n      pop\n      pop\n      pop\n      pop\n      pop\n        /* \"Security/Reentrancy.sol\":653:732  function sendEther() external payable {\r... */\n      jump\t// out\n        /* \"Security/Reentrancy.sol\":735:794  function withdrawEther() external {\r... */\n    tag_10:\n        /* \"Security/Reentrancy.sol\":774:778  bank */\n      0x00\n      dup1\n      sload\n        /* \"Security/Reentrancy.sol\":774:789  bank.withdraw() */\n      0x40\n      dup1\n      mload\n      0x3ccfd60b00000000000000000000000000000000000000000000000000000000\n      dup2\n      mstore\n      swap1\n      mload\n      sub(shl(0xa0, 0x01), 0x01)\n        /* \"Security/Reentrancy.sol\":774:778  bank */\n      swap1\n      swap3\n      and\n      swap3\n        /* \"Security/Reentrancy.sol\":774:787  bank.withdraw */\n      0x3ccfd60b\n      swap3\n        /* \"Security/Reentrancy.sol\":774:789  bank.withdraw() */\n      0x04\n      dup1\n      dup5\n      add\n      swap4\n      dup3\n      swap1\n      sub\n      add\n      dup2\n        /* \"Security/Reentrancy.sol\":774:778  bank */\n      dup4\n      dup8\n        /* \"Security/Reentrancy.sol\":774:789  bank.withdraw() */\n      dup1\n      extcodesize\n      iszero\n      dup1\n      iszero\n      tag_26\n      jumpi\n      0x00\n      dup1\n      revert\n    tag_26:\n      pop\n      gas\n      call\n      iszero\n      dup1\n      iszero\n      tag_28\n      jumpi\n      returndatasize\n      0x00\n      dup1\n      returndatacopy\n      revert(0x00, returndatasize)\n    tag_28:\n      pop\n      pop\n      pop\n      pop\n        /* \"Security/Reentrancy.sol\":735:794  function withdrawEther() external {\r... */\n      jump\t// out\n\n    auxdata: 0xa264697066735822122077a8eb5a1415ff492c9bc0c0db73a5de0be85af51b41f09bd60b0f062080607364736f6c63430008070033\n}\n",
				"bytecode": {
					"linkReferences": {},
					"object": "608060405234801561001057600080fd5b5060405161026138038061026183398101604081905261002f91610054565b600080546001600160a01b0319166001600160a01b0392909216919091179055610084565b60006020828403121561006657600080fd5b81516001600160a01b038116811461007d57600080fd5b9392505050565b6101ce806100936000396000f3fe60806040526004361061003f5760003560e01c80630e29df22146100445780637362377b1461004e57806376cdb03b14610063578063c71daccb146100a0575b600080fd5b61004c6100bb565b005b34801561005a57600080fd5b5061004c610124565b34801561006f57600080fd5b50600054610083906001600160a01b031681565b6040516001600160a01b0390911681526020015b60405180910390f35b3480156100ac57600080fd5b50604051478152602001610097565b60008054906101000a90046001600160a01b03166001600160a01b031663d0e30db0346040518263ffffffff1660e01b81526004016000604051808303818588803b15801561010957600080fd5b505af115801561011d573d6000803e3d6000fd5b5050505050565b60008054604080517f3ccfd60b00000000000000000000000000000000000000000000000000000000815290516001600160a01b0390921692633ccfd60b9260048084019382900301818387803b15801561017e57600080fd5b505af1158015610192573d6000803e3d6000fd5b5050505056fea264697066735822122077a8eb5a1415ff492c9bc0c0db73a5de0be85af51b41f09bd60b0f062080607364736f6c63430008070033",
					"opcodes": "PUSH1 0x80 PUSH1 0x40 MSTORE CALLVALUE DUP1 ISZERO PUSH2 0x10 JUMPI PUSH1 0x0 DUP1 REVERT JUMPDEST POP PUSH1 0x40 MLOAD PUSH2 0x261 CODESIZE SUB DUP1 PUSH2 0x261 DUP4 CODECOPY DUP2 ADD PUSH1 0x40 DUP2 SWAP1 MSTORE PUSH2 0x2F SWAP2 PUSH2 0x54 JUMP JUMPDEST PUSH1 0x0 DUP1 SLOAD PUSH1 0x1 PUSH1 0x1 PUSH1 0xA0 SHL SUB NOT AND PUSH1 0x1 PUSH1 0x1 PUSH1 0xA0 SHL SUB SWAP3 SWAP1 SWAP3 AND SWAP2 SWAP1 SWAP2 OR SWAP1 SSTORE PUSH2 0x84 JUMP JUMPDEST PUSH1 0x0 PUSH1 0x20 DUP3 DUP5 SUB SLT ISZERO PUSH2 0x66 JUMPI PUSH1 0x0 DUP1 REVERT JUMPDEST DUP2 MLOAD PUSH1 0x1 PUSH1 0x1 PUSH1 0xA0 SHL SUB DUP2 AND DUP2 EQ PUSH2 0x7D JUMPI PUSH1 0x0 DUP1 REVERT JUMPDEST SWAP4 SWAP3 POP POP POP JUMP JUMPDEST PUSH2 0x1CE DUP1 PUSH2 0x93 PUSH1 0x0 CODECOPY PUSH1 0x0 RETURN INVALID PUSH1 0x80 PUSH1 0x40 MSTORE PUSH1 0x4 CALLDATASIZE LT PUSH2 0x3F JUMPI PUSH1 0x0 CALLDATALOAD PUSH1 0xE0 SHR DUP1 PUSH4 0xE29DF22 EQ PUSH2 0x44 JUMPI DUP1 PUSH4 0x7362377B EQ PUSH2 0x4E JUMPI DUP1 PUSH4 0x76CDB03B EQ PUSH2 0x63 JUMPI DUP1 PUSH4 0xC71DACCB EQ PUSH2 0xA0 JUMPI JUMPDEST PUSH1 0x0 DUP1 REVERT JUMPDEST PUSH2 0x4C PUSH2 0xBB JUMP JUMPDEST STOP JUMPDEST CALLVALUE DUP1 ISZERO PUSH2 0x5A JUMPI PUSH1 0x0 DUP1 REVERT JUMPDEST POP PUSH2 0x4C PUSH2 0x124 JUMP JUMPDEST CALLVALUE DUP1 ISZERO PUSH2 0x6F JUMPI PUSH1 0x0 DUP1 REVERT JUMPDEST POP PUSH1 0x0 SLOAD PUSH2 0x83 SWAP1 PUSH1 0x1 PUSH1 0x1 PUSH1 0xA0 SHL SUB AND DUP2 JUMP JUMPDEST PUSH1 0x40 MLOAD PUSH1 0x1 PUSH1 0x1 PUSH1 0xA0 SHL SUB SWAP1 SWAP2 AND DUP2 MSTORE PUSH1 0x20 ADD JUMPDEST PUSH1 0x40 MLOAD DUP1 SWAP2 SUB SWAP1 RETURN JUMPDEST CALLVALUE DUP1 ISZERO PUSH2 0xAC JUMPI PUSH1 0x0 DUP1 REVERT JUMPDEST POP PUSH1 0x40 MLOAD SELFBALANCE DUP2 MSTORE PUSH1 0x20 ADD PUSH2 0x97 JUMP JUMPDEST PUSH1 0x0 DUP1 SLOAD SWAP1 PUSH2 0x100 EXP SWAP1 DIV PUSH1 0x1 PUSH1 0x1 PUSH1 0xA0 SHL SUB AND PUSH1 0x1 PUSH1 0x1 PUSH1 0xA0 SHL SUB AND PUSH4 0xD0E30DB0 CALLVALUE PUSH1 0x40 MLOAD DUP3 PUSH4 0xFFFFFFFF AND PUSH1 0xE0 SHL DUP2 MSTORE PUSH1 0x4 ADD PUSH1 0x0 PUSH1 0x40 MLOAD DUP1 DUP4 SUB DUP2 DUP6 DUP9 DUP1 EXTCODESIZE ISZERO DUP1 ISZERO PUSH2 0x109 JUMPI PUSH1 0x0 DUP1 REVERT JUMPDEST POP GAS CALL ISZERO DUP1 ISZERO PUSH2 0x11D JUMPI RETURNDATASIZE PUSH1 0x0 DUP1 RETURNDATACOPY RETURNDATASIZE PUSH1 0x0 REVERT JUMPDEST POP POP POP POP POP JUMP JUMPDEST PUSH1 0x0 DUP1 SLOAD PUSH1 0x40 DUP1 MLOAD PUSH32 0x3CCFD60B00000000000000000000000000000000000000000000000000000000 DUP2 MSTORE SWAP1 MLOAD PUSH1 0x1 PUSH1 0x1 PUSH1 0xA0 SHL SUB SWAP1 SWAP3 AND SWAP3 PUSH4 0x3CCFD60B SWAP3 PUSH1 0x4 DUP1 DUP5 ADD SWAP4 DUP3 SWAP1 SUB ADD DUP2 DUP4 DUP8 DUP1 EXTCODESIZE ISZERO DUP1 ISZERO PUSH2 0x17E JUMPI PUSH1 0x0 DUP1 REVERT JUMPDEST POP GAS CALL ISZERO DUP1 ISZERO PUSH2 0x192 JUMPI RETURNDATASIZE PUSH1 0x0 DUP1 RETURNDATACOPY RETURNDATASIZE PUSH1 0x0 REVERT JUMPDEST POP POP POP POP JUMP INVALID LOG2 PUSH5 0x6970667358 0x22 SLT KECCAK256 PUSH24 0xA8EB5A1415FF492C9BC0C0DB73A5DE0BE85AF51B41F09BD6 SIGNEXTEND 0xF MOD KECCAK256 DUP1 PUSH1 0x73 PUSH5 0x736F6C6343 STOP ADDMOD SMOD STOP CALLER "
				},
				"gasEstimates": {
					"creation": {
						"codeDepositCost": "92400",
						"executionCost": "infinite",
						"totalCost": "infinite"
					},
					"external": {
						"bank()": "2348",
						"checkBalance()": "223",
						"sendEther()": "infinite",
						"withdrawEther()": "infinite"
					}
				},
				"methodIdentifiers": {
					"bank()": "76cdb03b",
					"checkBalance()": "c71daccb",
					"sendEther()": "0e29df22",
					"withdrawEther()": "7362377b"
				}
			},
			"storageLayout": {
				"storage": [
					{
						"astId": 54,
						"contract": "Security/Reentrancy.sol:Attacker",
						"label": "bank",
						"offset": 0,
						"slot": "0",
						"type": "t_contract(Bank)51"
					}
				],
				"types": {
					"t_contract(Bank)51": {
						"encoding": "inplace",
						"label": "contract Bank",
						"numberOfBytes": "20"
					}
				}
			},
			"userdoc": {
				"kind": "user",
				"methods": {},
				"version": 1
			}
		}
	}
}