{
	"Security/Reentrancy.sol": {
		"Attacker": {
			"abi": [
				{
					"inputs": [
						{
							"internalType": "address",
							"name": "_bank",
							"type": "address"
						}
					],
					"stateMutability": "nonpayable",
					"type": "constructor"
				},
				{
					"anonymous": false,
					"inputs": [
						{
							"indexed": false,
							"internalType": "string",
							"name": "info",
							"type": "string"
						}
					],
					"name": "Info",
					"type": "event"
				},
				{
					"inputs": [],
					"name": "bank",
					"outputs": [
						{
							"internalType": "contract Bank",
							"name": "",
							"type": "address"
						}
					],
					"stateMutability": "view",
					"type": "function"
				},
				{
					"inputs": [],
					"name": "checkBalance",
					"outputs": [
						{
							"internalType": "uint256",
							"name": "",
							"type": "uint256"
						}
					],
					"stateMutability": "view",
					"type": "function"
				},
				{
					"inputs": [],
					"name": "sendEther",
					"outputs": [],
					"stateMutability": "payable",
					"type": "function"
				},
				{
					"inputs": [],
					"name": "withdrawEther",
					"outputs": [],
					"stateMutability": "nonpayable",
					"type": "function"
				},
				{
					"stateMutability": "payable",
					"type": "receive"
				}
			],
			"devdoc": {
				"kind": "dev",
				"methods": {},
				"version": 1
			},
			"evm": {
				"assembly": "    /* \"Security/Reentrancy.sol\":640:1515  contract Attacker {\r... */\n  mstore(0x40, 0x80)\n    /* \"Security/Reentrancy.sol\":715:826  constructor(address _bank) {\r... */\n  callvalue\n  dup1\n  iszero\n  tag_1\n  jumpi\n  0x00\n  dup1\n  revert\ntag_1:\n  pop\n  mload(0x40)\n  sub(codesize, bytecodeSize)\n  dup1\n  bytecodeSize\n  dup4\n  codecopy\n  dup2\n  add\n  0x40\n  dup2\n  swap1\n  mstore\n  tag_2\n  swap2\n  tag_3\n  jump\t// in\ntag_2:\n    /* \"Security/Reentrancy.sol\":803:807  bank */\n  0x00\n    /* \"Security/Reentrancy.sol\":803:821  bank = Bank(_bank) */\n  dup1\n  sload\n  not(sub(shl(0xa0, 0x01), 0x01))\n  and\n  sub(shl(0xa0, 0x01), 0x01)\n  swap3\n  swap1\n  swap3\n  and\n  swap2\n  swap1\n  swap2\n  or\n  swap1\n  sstore\n    /* \"Security/Reentrancy.sol\":640:1515  contract Attacker {\r... */\n  jump(tag_7)\n    /* \"#utility.yul\":14:304   */\ntag_3:\n    /* \"#utility.yul\":84:90   */\n  0x00\n    /* \"#utility.yul\":137:139   */\n  0x20\n    /* \"#utility.yul\":125:134   */\n  dup3\n    /* \"#utility.yul\":116:123   */\n  dup5\n    /* \"#utility.yul\":112:135   */\n  sub\n    /* \"#utility.yul\":108:140   */\n  slt\n    /* \"#utility.yul\":105:157   */\n  iszero\n  tag_9\n  jumpi\n    /* \"#utility.yul\":153:154   */\n  0x00\n    /* \"#utility.yul\":150:151   */\n  dup1\n    /* \"#utility.yul\":143:155   */\n  revert\n    /* \"#utility.yul\":105:157   */\ntag_9:\n    /* \"#utility.yul\":179:195   */\n  dup2\n  mload\n  sub(shl(0xa0, 0x01), 0x01)\n    /* \"#utility.yul\":224:255   */\n  dup2\n  and\n    /* \"#utility.yul\":214:256   */\n  dup2\n  eq\n    /* \"#utility.yul\":204:274   */\n  tag_10\n  jumpi\n    /* \"#utility.yul\":270:271   */\n  0x00\n    /* \"#utility.yul\":267:268   */\n  dup1\n    /* \"#utility.yul\":260:272   */\n  revert\n    /* \"#utility.yul\":204:274   */\ntag_10:\n    /* \"#utility.yul\":293:298   */\n  swap4\n    /* \"#utility.yul\":14:304   */\n  swap3\n  pop\n  pop\n  pop\n  jump\t// out\ntag_7:\n    /* \"Security/Reentrancy.sol\":640:1515  contract Attacker {\r... */\n  dataSize(sub_0)\n  dup1\n  dataOffset(sub_0)\n  0x00\n  codecopy\n  0x00\n  return\nstop\n\nsub_0: assembly {\n        /* \"Security/Reentrancy.sol\":640:1515  contract Attacker {\r... */\n      mstore(0x40, 0x80)\n      jumpi(tag_1, lt(calldatasize, 0x04))\n      shr(0xe0, calldataload(0x00))\n      dup1\n      0x0e29df22\n      eq\n      tag_3\n      jumpi\n      dup1\n      0x7362377b\n      eq\n      tag_4\n      jumpi\n      dup1\n      0x76cdb03b\n      eq\n      tag_5\n      jumpi\n      dup1\n      0xc71daccb\n      eq\n      tag_6\n      jumpi\n      0x00\n      dup1\n      revert\n    tag_1:\n      jumpi(tag_2, calldatasize)\n        /* \"Security/Reentrancy.sol\":1122:1132  msg.sender */\n      caller\n        /* \"Security/Reentrancy.sol\":1114:1141  address(msg.sender).balance */\n      balance\n        /* \"Security/Reentrancy.sol\":1114:1145  address(msg.sender).balance > 0 */\n      iszero\n        /* \"Security/Reentrancy.sol\":1111:1262  if(address(msg.sender).balance > 0) {\r... */\n      tag_9\n      jumpi\n        /* \"Security/Reentrancy.sol\":1162:1166  bank */\n      0x00\n      dup1\n      sload\n        /* \"Security/Reentrancy.sol\":1162:1177  bank.withdraw() */\n      0x40\n      dup1\n      mload\n      shl(0xe0, 0x3ccfd60b)\n      dup2\n      mstore\n      swap1\n      mload\n      sub(shl(0xa0, 0x01), 0x01)\n        /* \"Security/Reentrancy.sol\":1162:1166  bank */\n      swap1\n      swap3\n      and\n      swap3\n        /* \"Security/Reentrancy.sol\":1162:1175  bank.withdraw */\n      0x3ccfd60b\n      swap3\n        /* \"Security/Reentrancy.sol\":1162:1177  bank.withdraw() */\n      0x04\n      dup1\n      dup5\n      add\n      swap4\n      dup3\n      swap1\n      sub\n      add\n      dup2\n        /* \"Security/Reentrancy.sol\":1162:1166  bank */\n      dup4\n      dup8\n        /* \"Security/Reentrancy.sol\":1162:1177  bank.withdraw() */\n      dup1\n      extcodesize\n      iszero\n      dup1\n      iszero\n      tag_10\n      jumpi\n      0x00\n      dup1\n      revert\n    tag_10:\n      pop\n      gas\n      call\n      iszero\n      dup1\n      iszero\n      tag_12\n      jumpi\n      returndatasize\n      0x00\n      dup1\n      returndatacopy\n      revert(0x00, returndatasize)\n    tag_12:\n      pop\n      pop\n      pop\n      pop\n        /* \"Security/Reentrancy.sol\":640:1515  contract Attacker {\r... */\n      stop\n        /* \"Security/Reentrancy.sol\":1111:1262  if(address(msg.sender).balance > 0) {\r... */\n    tag_9:\n        /* \"Security/Reentrancy.sol\":1215:1250  Info(\"Thank you for your ether :)\") */\n      0x6d128f203c67be3b2d9bf1612fd59bdd6ae01f4f0d2ffedd05e76ab2a09b7f8a\n      mload(0x40)\n      tag_14\n      swap1\n        /* \"#utility.yul\":458:460   */\n      0x20\n        /* \"#utility.yul\":440:461   */\n      dup1\n      dup3\n      mstore\n        /* \"#utility.yul\":497:499   */\n      0x1b\n        /* \"#utility.yul\":477:495   */\n      swap1\n      dup3\n      add\n        /* \"#utility.yul\":470:500   */\n      mstore\n        /* \"#utility.yul\":536:565   */\n      0x5468616e6b20796f7520666f7220796f7572206574686572203a290000000000\n        /* \"#utility.yul\":531:533   */\n      0x40\n        /* \"#utility.yul\":516:534   */\n      dup3\n      add\n        /* \"#utility.yul\":509:566   */\n      mstore\n        /* \"#utility.yul\":598:600   */\n      0x60\n        /* \"#utility.yul\":583:601   */\n      add\n      swap1\n        /* \"#utility.yul\":256:607   */\n      jump\n        /* \"Security/Reentrancy.sol\":1215:1250  Info(\"Thank you for your ether :)\") */\n    tag_14:\n      mload(0x40)\n      dup1\n      swap2\n      sub\n      swap1\n      log1\n        /* \"Security/Reentrancy.sol\":1111:1262  if(address(msg.sender).balance > 0) {\r... */\n    tag_13:\n        /* \"Security/Reentrancy.sol\":640:1515  contract Attacker {\r... */\n      stop\n    tag_2:\n      0x00\n      dup1\n      revert\n        /* \"Security/Reentrancy.sol\":1274:1353  function sendEther() external payable {\r... */\n    tag_3:\n      tag_13\n      tag_17\n      jump\t// in\n        /* \"Security/Reentrancy.sol\":1358:1417  function withdrawEther() external {\r... */\n    tag_4:\n      callvalue\n      dup1\n      iszero\n      tag_18\n      jumpi\n      0x00\n      dup1\n      revert\n    tag_18:\n      pop\n      tag_13\n      tag_20\n      jump\t// in\n        /* \"Security/Reentrancy.sol\":695:711  Bank public bank */\n    tag_5:\n      callvalue\n      dup1\n      iszero\n      tag_21\n      jumpi\n      0x00\n      dup1\n      revert\n    tag_21:\n      pop\n      sload(0x00)\n      tag_22\n      swap1\n      sub(shl(0xa0, 0x01), 0x01)\n      and\n      dup2\n      jump\n    tag_22:\n      mload(0x40)\n      sub(shl(0xa0, 0x01), 0x01)\n        /* \"#utility.yul\":189:244   */\n      swap1\n      swap2\n      and\n        /* \"#utility.yul\":171:245   */\n      dup2\n      mstore\n        /* \"#utility.yul\":159:161   */\n      0x20\n        /* \"#utility.yul\":144:162   */\n      add\n        /* \"Security/Reentrancy.sol\":695:711  Bank public bank */\n    tag_24:\n      mload(0x40)\n      dup1\n      swap2\n      sub\n      swap1\n      return\n        /* \"Security/Reentrancy.sol\":1422:1512  function checkBalance() external view returns(uint) {\r... */\n    tag_6:\n      callvalue\n      dup1\n      iszero\n      tag_26\n      jumpi\n      0x00\n      dup1\n      revert\n    tag_26:\n      pop\n      mload(0x40)\n        /* \"Security/Reentrancy.sol\":1486:1507  address(this).balance */\n      selfbalance\n        /* \"#utility.yul\":758:783   */\n      dup2\n      mstore\n        /* \"#utility.yul\":746:748   */\n      0x20\n        /* \"#utility.yul\":731:749   */\n      add\n        /* \"Security/Reentrancy.sol\":1422:1512  function checkBalance() external view returns(uint) {\r... */\n      tag_24\n        /* \"#utility.yul\":612:789   */\n      jump\n        /* \"Security/Reentrancy.sol\":1274:1353  function sendEther() external payable {\r... */\n    tag_17:\n        /* \"Security/Reentrancy.sol\":1317:1321  bank */\n      0x00\n      dup1\n      sload\n      swap1\n      0x0100\n      exp\n      swap1\n      div\n      sub(shl(0xa0, 0x01), 0x01)\n      and\n      sub(shl(0xa0, 0x01), 0x01)\n        /* \"Security/Reentrancy.sol\":1317:1329  bank.deposit */\n      and\n      0xd0e30db0\n        /* \"Security/Reentrancy.sol\":1336:1345  msg.value */\n      callvalue\n        /* \"Security/Reentrancy.sol\":1317:1348  bank.deposit{value:msg.value}() */\n      mload(0x40)\n      dup3\n      0xffffffff\n      and\n      0xe0\n      shl\n      dup2\n      mstore\n      0x04\n      add\n      0x00\n      mload(0x40)\n      dup1\n      dup4\n      sub\n      dup2\n      dup6\n      dup9\n      dup1\n      extcodesize\n      iszero\n      dup1\n      iszero\n      tag_32\n      jumpi\n      0x00\n      dup1\n      revert\n    tag_32:\n      pop\n      gas\n      call\n      iszero\n      dup1\n      iszero\n      tag_34\n      jumpi\n      returndatasize\n      0x00\n      dup1\n      returndatacopy\n      revert(0x00, returndatasize)\n    tag_34:\n      pop\n      pop\n      pop\n      pop\n      pop\n        /* \"Security/Reentrancy.sol\":1274:1353  function sendEther() external payable {\r... */\n      jump\t// out\n        /* \"Security/Reentrancy.sol\":1358:1417  function withdrawEther() external {\r... */\n    tag_20:\n        /* \"Security/Reentrancy.sol\":1397:1401  bank */\n      0x00\n      dup1\n      sload\n        /* \"Security/Reentrancy.sol\":1397:1412  bank.withdraw() */\n      0x40\n      dup1\n      mload\n      shl(0xe0, 0x3ccfd60b)\n      dup2\n      mstore\n      swap1\n      mload\n      sub(shl(0xa0, 0x01), 0x01)\n        /* \"Security/Reentrancy.sol\":1397:1401  bank */\n      swap1\n      swap3\n      and\n      swap3\n        /* \"Security/Reentrancy.sol\":1397:1410  bank.withdraw */\n      0x3ccfd60b\n      swap3\n        /* \"Security/Reentrancy.sol\":1397:1412  bank.withdraw() */\n      0x04\n      dup1\n      dup5\n      add\n      swap4\n      dup3\n      swap1\n      sub\n      add\n      dup2\n        /* \"Security/Reentrancy.sol\":1397:1401  bank */\n      dup4\n      dup8\n        /* \"Security/Reentrancy.sol\":1397:1412  bank.withdraw() */\n      dup1\n      extcodesize\n      iszero\n      dup1\n      iszero\n      tag_36\n      jumpi\n      0x00\n      dup1\n      revert\n    tag_36:\n      pop\n      gas\n      call\n      iszero\n      dup1\n      iszero\n      tag_38\n      jumpi\n      returndatasize\n      0x00\n      dup1\n      returndatacopy\n      revert(0x00, returndatasize)\n    tag_38:\n      pop\n      pop\n      pop\n      pop\n        /* \"Security/Reentrancy.sol\":1358:1417  function withdrawEther() external {\r... */\n      jump\t// out\n\n    auxdata: 0xa26469706673582212200e32a56901554fbcb55adc5d8bc1b3e7628ead2e370f0963f4726445ac6f822264736f6c63430008070033\n}\n",
				"bytecode": {
					"linkReferences": {},
					"object": "608060405234801561001057600080fd5b5060405161031b38038061031b83398101604081905261002f91610054565b600080546001600160a01b0319166001600160a01b0392909216919091179055610084565b60006020828403121561006657600080fd5b81516001600160a01b038116811461007d57600080fd5b9392505050565b610288806100936000396000f3fe6080604052600436106100435760003560e01c80630e29df22146101195780637362377b1461012157806376cdb03b14610136578063c71daccb1461017357600080fd5b36610114573331156100aa576000805460408051633ccfd60b60e01b815290516001600160a01b0390921692633ccfd60b9260048084019382900301818387803b15801561009057600080fd5b505af11580156100a4573d6000803e3d6000fd5b50505050005b7f6d128f203c67be3b2d9bf1612fd59bdd6ae01f4f0d2ffedd05e76ab2a09b7f8a604051610109906020808252601b908201527f5468616e6b20796f7520666f7220796f7572206574686572203a290000000000604082015260600190565b60405180910390a15b005b600080fd5b61011261018e565b34801561012d57600080fd5b506101126101f7565b34801561014257600080fd5b50600054610156906001600160a01b031681565b6040516001600160a01b0390911681526020015b60405180910390f35b34801561017f57600080fd5b5060405147815260200161016a565b60008054906101000a90046001600160a01b03166001600160a01b031663d0e30db0346040518263ffffffff1660e01b81526004016000604051808303818588803b1580156101dc57600080fd5b505af11580156101f0573d6000803e3d6000fd5b5050505050565b6000805460408051633ccfd60b60e01b815290516001600160a01b0390921692633ccfd60b9260048084019382900301818387803b15801561023857600080fd5b505af115801561024c573d6000803e3d6000fd5b5050505056fea26469706673582212200e32a56901554fbcb55adc5d8bc1b3e7628ead2e370f0963f4726445ac6f822264736f6c63430008070033",
					"opcodes": "PUSH1 0x80 PUSH1 0x40 MSTORE CALLVALUE DUP1 ISZERO PUSH2 0x10 JUMPI PUSH1 0x0 DUP1 REVERT JUMPDEST POP PUSH1 0x40 MLOAD PUSH2 0x31B CODESIZE SUB DUP1 PUSH2 0x31B DUP4 CODECOPY DUP2 ADD PUSH1 0x40 DUP2 SWAP1 MSTORE PUSH2 0x2F SWAP2 PUSH2 0x54 JUMP JUMPDEST PUSH1 0x0 DUP1 SLOAD PUSH1 0x1 PUSH1 0x1 PUSH1 0xA0 SHL SUB NOT AND PUSH1 0x1 PUSH1 0x1 PUSH1 0xA0 SHL SUB SWAP3 SWAP1 SWAP3 AND SWAP2 SWAP1 SWAP2 OR SWAP1 SSTORE PUSH2 0x84 JUMP JUMPDEST PUSH1 0x0 PUSH1 0x20 DUP3 DUP5 SUB SLT ISZERO PUSH2 0x66 JUMPI PUSH1 0x0 DUP1 REVERT JUMPDEST DUP2 MLOAD PUSH1 0x1 PUSH1 0x1 PUSH1 0xA0 SHL SUB DUP2 AND DUP2 EQ PUSH2 0x7D JUMPI PUSH1 0x0 DUP1 REVERT JUMPDEST SWAP4 SWAP3 POP POP POP JUMP JUMPDEST PUSH2 0x288 DUP1 PUSH2 0x93 PUSH1 0x0 CODECOPY PUSH1 0x0 RETURN INVALID PUSH1 0x80 PUSH1 0x40 MSTORE PUSH1 0x4 CALLDATASIZE LT PUSH2 0x43 JUMPI PUSH1 0x0 CALLDATALOAD PUSH1 0xE0 SHR DUP1 PUSH4 0xE29DF22 EQ PUSH2 0x119 JUMPI DUP1 PUSH4 0x7362377B EQ PUSH2 0x121 JUMPI DUP1 PUSH4 0x76CDB03B EQ PUSH2 0x136 JUMPI DUP1 PUSH4 0xC71DACCB EQ PUSH2 0x173 JUMPI PUSH1 0x0 DUP1 REVERT JUMPDEST CALLDATASIZE PUSH2 0x114 JUMPI CALLER BALANCE ISZERO PUSH2 0xAA JUMPI PUSH1 0x0 DUP1 SLOAD PUSH1 0x40 DUP1 MLOAD PUSH4 0x3CCFD60B PUSH1 0xE0 SHL DUP2 MSTORE SWAP1 MLOAD PUSH1 0x1 PUSH1 0x1 PUSH1 0xA0 SHL SUB SWAP1 SWAP3 AND SWAP3 PUSH4 0x3CCFD60B SWAP3 PUSH1 0x4 DUP1 DUP5 ADD SWAP4 DUP3 SWAP1 SUB ADD DUP2 DUP4 DUP8 DUP1 EXTCODESIZE ISZERO DUP1 ISZERO PUSH2 0x90 JUMPI PUSH1 0x0 DUP1 REVERT JUMPDEST POP GAS CALL ISZERO DUP1 ISZERO PUSH2 0xA4 JUMPI RETURNDATASIZE PUSH1 0x0 DUP1 RETURNDATACOPY RETURNDATASIZE PUSH1 0x0 REVERT JUMPDEST POP POP POP POP STOP JUMPDEST PUSH32 0x6D128F203C67BE3B2D9BF1612FD59BDD6AE01F4F0D2FFEDD05E76AB2A09B7F8A PUSH1 0x40 MLOAD PUSH2 0x109 SWAP1 PUSH1 0x20 DUP1 DUP3 MSTORE PUSH1 0x1B SWAP1 DUP3 ADD MSTORE PUSH32 0x5468616E6B20796F7520666F7220796F7572206574686572203A290000000000 PUSH1 0x40 DUP3 ADD MSTORE PUSH1 0x60 ADD SWAP1 JUMP JUMPDEST PUSH1 0x40 MLOAD DUP1 SWAP2 SUB SWAP1 LOG1 JUMPDEST STOP JUMPDEST PUSH1 0x0 DUP1 REVERT JUMPDEST PUSH2 0x112 PUSH2 0x18E JUMP JUMPDEST CALLVALUE DUP1 ISZERO PUSH2 0x12D JUMPI PUSH1 0x0 DUP1 REVERT JUMPDEST POP PUSH2 0x112 PUSH2 0x1F7 JUMP JUMPDEST CALLVALUE DUP1 ISZERO PUSH2 0x142 JUMPI PUSH1 0x0 DUP1 REVERT JUMPDEST POP PUSH1 0x0 SLOAD PUSH2 0x156 SWAP1 PUSH1 0x1 PUSH1 0x1 PUSH1 0xA0 SHL SUB AND DUP2 JUMP JUMPDEST PUSH1 0x40 MLOAD PUSH1 0x1 PUSH1 0x1 PUSH1 0xA0 SHL SUB SWAP1 SWAP2 AND DUP2 MSTORE PUSH1 0x20 ADD JUMPDEST PUSH1 0x40 MLOAD DUP1 SWAP2 SUB SWAP1 RETURN JUMPDEST CALLVALUE DUP1 ISZERO PUSH2 0x17F JUMPI PUSH1 0x0 DUP1 REVERT JUMPDEST POP PUSH1 0x40 MLOAD SELFBALANCE DUP2 MSTORE PUSH1 0x20 ADD PUSH2 0x16A JUMP JUMPDEST PUSH1 0x0 DUP1 SLOAD SWAP1 PUSH2 0x100 EXP SWAP1 DIV PUSH1 0x1 PUSH1 0x1 PUSH1 0xA0 SHL SUB AND PUSH1 0x1 PUSH1 0x1 PUSH1 0xA0 SHL SUB AND PUSH4 0xD0E30DB0 CALLVALUE PUSH1 0x40 MLOAD DUP3 PUSH4 0xFFFFFFFF AND PUSH1 0xE0 SHL DUP2 MSTORE PUSH1 0x4 ADD PUSH1 0x0 PUSH1 0x40 MLOAD DUP1 DUP4 SUB DUP2 DUP6 DUP9 DUP1 EXTCODESIZE ISZERO DUP1 ISZERO PUSH2 0x1DC JUMPI PUSH1 0x0 DUP1 REVERT JUMPDEST POP GAS CALL ISZERO DUP1 ISZERO PUSH2 0x1F0 JUMPI RETURNDATASIZE PUSH1 0x0 DUP1 RETURNDATACOPY RETURNDATASIZE PUSH1 0x0 REVERT JUMPDEST POP POP POP POP POP JUMP JUMPDEST PUSH1 0x0 DUP1 SLOAD PUSH1 0x40 DUP1 MLOAD PUSH4 0x3CCFD60B PUSH1 0xE0 SHL DUP2 MSTORE SWAP1 MLOAD PUSH1 0x1 PUSH1 0x1 PUSH1 0xA0 SHL SUB SWAP1 SWAP3 AND SWAP3 PUSH4 0x3CCFD60B SWAP3 PUSH1 0x4 DUP1 DUP5 ADD SWAP4 DUP3 SWAP1 SUB ADD DUP2 DUP4 DUP8 DUP1 EXTCODESIZE ISZERO DUP1 ISZERO PUSH2 0x238 JUMPI PUSH1 0x0 DUP1 REVERT JUMPDEST POP GAS CALL ISZERO DUP1 ISZERO PUSH2 0x24C JUMPI RETURNDATASIZE PUSH1 0x0 DUP1 RETURNDATACOPY RETURNDATASIZE PUSH1 0x0 REVERT JUMPDEST POP POP POP POP JUMP INVALID LOG2 PUSH5 0x6970667358 0x22 SLT KECCAK256 0xE ORIGIN 0xA5 PUSH10 0x1554FBCB55ADC5D8BC1 0xB3 0xE7 PUSH3 0x8EAD2E CALLDATACOPY 0xF MULMOD PUSH4 0xF4726445 0xAC PUSH16 0x822264736F6C63430008070033000000 "
				},
				"gasEstimates": {
					"creation": {
						"codeDepositCost": "129600",
						"executionCost": "infinite",
						"totalCost": "infinite"
					},
					"external": {
						"bank()": "2348",
						"checkBalance()": "223",
						"sendEther()": "infinite",
						"withdrawEther()": "infinite"
					}
				},
				"methodIdentifiers": {
					"bank()": "76cdb03b",
					"checkBalance()": "c71daccb",
					"sendEther()": "0e29df22",
					"withdrawEther()": "7362377b"
				}
			},
			"storageLayout": {
				"storage": [
					{
						"astId": 74,
						"contract": "Security/Reentrancy.sol:Attacker",
						"label": "bank",
						"offset": 0,
						"slot": "0",
						"type": "t_contract(Bank)67"
					}
				],
				"types": {
					"t_contract(Bank)67": {
						"encoding": "inplace",
						"label": "contract Bank",
						"numberOfBytes": "20"
					}
				}
			},
			"userdoc": {
				"kind": "user",
				"methods": {},
				"version": 1
			}
		}
	}
}