{
	"Security/Reentrancy.sol": {
		"Bank": {
			"abi": [
				{
					"inputs": [],
					"stateMutability": "payable",
					"type": "constructor"
				},
				{
					"inputs": [
						{
							"internalType": "address",
							"name": "",
							"type": "address"
						}
					],
					"name": "balances",
					"outputs": [
						{
							"internalType": "uint256",
							"name": "",
							"type": "uint256"
						}
					],
					"stateMutability": "view",
					"type": "function"
				},
				{
					"inputs": [],
					"name": "checkBalance",
					"outputs": [
						{
							"internalType": "uint256",
							"name": "",
							"type": "uint256"
						}
					],
					"stateMutability": "view",
					"type": "function"
				},
				{
					"inputs": [],
					"name": "deposit",
					"outputs": [],
					"stateMutability": "payable",
					"type": "function"
				},
				{
					"inputs": [],
					"name": "withdraw",
					"outputs": [],
					"stateMutability": "nonpayable",
					"type": "function"
				}
			],
			"devdoc": {
				"kind": "dev",
				"methods": {},
				"version": 1
			},
			"evm": {
				"assembly": "    /* \"Security/Reentrancy.sol\":132:634  contract Bank {\r... */\n  mstore(0x40, 0x80)\n  dataSize(sub_0)\n  dup1\n  dataOffset(sub_0)\n  0x00\n  codecopy\n  0x00\n  return\nstop\n\nsub_0: assembly {\n        /* \"Security/Reentrancy.sol\":132:634  contract Bank {\r... */\n      mstore(0x40, 0x80)\n      jumpi(tag_1, lt(calldatasize, 0x04))\n      shr(0xe0, calldataload(0x00))\n      dup1\n      0x27e235e3\n      eq\n      tag_2\n      jumpi\n      dup1\n      0x3ccfd60b\n      eq\n      tag_3\n      jumpi\n      dup1\n      0xc71daccb\n      eq\n      tag_4\n      jumpi\n      dup1\n      0xd0e30db0\n      eq\n      tag_5\n      jumpi\n    tag_1:\n      0x00\n      dup1\n      revert\n        /* \"Security/Reentrancy.sol\":150:190  mapping(address => uint) public balances */\n    tag_2:\n      callvalue\n      dup1\n      iszero\n      tag_6\n      jumpi\n      0x00\n      dup1\n      revert\n    tag_6:\n      pop\n      tag_7\n      tag_8\n      calldatasize\n      0x04\n      tag_9\n      jump\t// in\n    tag_8:\n      0x00\n      0x20\n      dup2\n      swap1\n      mstore\n      swap1\n      dup2\n      mstore\n      0x40\n      swap1\n      keccak256\n      sload\n      dup2\n      jump\n    tag_7:\n      mload(0x40)\n        /* \"#utility.yul\":1017:1042   */\n      swap1\n      dup2\n      mstore\n        /* \"#utility.yul\":1005:1007   */\n      0x20\n        /* \"#utility.yul\":990:1008   */\n      add\n        /* \"Security/Reentrancy.sol\":150:190  mapping(address => uint) public balances */\n      mload(0x40)\n      dup1\n      swap2\n      sub\n      swap1\n      return\n        /* \"Security/Reentrancy.sol\":329:533  function withdraw() external {\r... */\n    tag_3:\n      callvalue\n      dup1\n      iszero\n      tag_13\n      jumpi\n      0x00\n      dup1\n      revert\n    tag_13:\n      pop\n      tag_14\n      tag_15\n      jump\t// in\n    tag_14:\n      stop\n        /* \"Security/Reentrancy.sol\":541:631  function checkBalance() external view returns(uint) {\r... */\n    tag_4:\n      callvalue\n      dup1\n      iszero\n      tag_16\n      jumpi\n      0x00\n      dup1\n      revert\n    tag_16:\n      pop\n        /* \"Security/Reentrancy.sol\":605:626  address(this).balance */\n      selfbalance\n        /* \"Security/Reentrancy.sol\":541:631  function checkBalance() external view returns(uint) {\r... */\n      jump(tag_7)\n        /* \"Security/Reentrancy.sol\":245:324  function deposit() external payable {\r... */\n    tag_5:\n      tag_14\n      tag_21\n      jump\t// in\n        /* \"Security/Reentrancy.sol\":329:533  function withdraw() external {\r... */\n    tag_15:\n        /* \"Security/Reentrancy.sol\":394:404  msg.sender */\n      caller\n        /* \"Security/Reentrancy.sol\":363:382  uint currentBalance */\n      0x00\n        /* \"Security/Reentrancy.sol\":385:405  balances[msg.sender] */\n      dup2\n      dup2\n      mstore\n      0x20\n      dup2\n      swap1\n      mstore\n      0x40\n      dup1\n      dup3\n      keccak256\n      sload\n        /* \"Security/Reentrancy.sol\":427:468  msg.sender.call{value:currentBalance}(\"\") */\n      swap1\n      mload\n        /* \"Security/Reentrancy.sol\":385:405  balances[msg.sender] */\n      swap1\n      swap3\n        /* \"Security/Reentrancy.sol\":394:404  msg.sender */\n      swap1\n        /* \"Security/Reentrancy.sol\":385:405  balances[msg.sender] */\n      dup4\n      swap1\n        /* \"Security/Reentrancy.sol\":363:382  uint currentBalance */\n      dup4\n        /* \"Security/Reentrancy.sol\":427:468  msg.sender.call{value:currentBalance}(\"\") */\n      dup2\n        /* \"Security/Reentrancy.sol\":363:382  uint currentBalance */\n      dup2\n        /* \"Security/Reentrancy.sol\":427:468  msg.sender.call{value:currentBalance}(\"\") */\n      dup2\n        /* \"Security/Reentrancy.sol\":385:405  balances[msg.sender] */\n      dup6\n        /* \"Security/Reentrancy.sol\":394:404  msg.sender */\n      dup8\n        /* \"Security/Reentrancy.sol\":427:468  msg.sender.call{value:currentBalance}(\"\") */\n      gas\n      call\n      swap3\n      pop\n      pop\n      pop\n      returndatasize\n      dup1\n      0x00\n      dup2\n      eq\n      tag_27\n      jumpi\n      mload(0x40)\n      swap2\n      pop\n      and(add(returndatasize, 0x3f), not(0x1f))\n      dup3\n      add\n      0x40\n      mstore\n      returndatasize\n      dup3\n      mstore\n      returndatasize\n      0x00\n      0x20\n      dup5\n      add\n      returndatacopy\n      jump(tag_26)\n    tag_27:\n      0x60\n      swap2\n      pop\n    tag_26:\n      pop\n        /* \"Security/Reentrancy.sol\":410:468  (bool result,) = msg.sender.call{value:currentBalance}(\"\") */\n      pop\n      swap1\n      pop\n        /* \"Security/Reentrancy.sol\":481:487  result */\n      dup1\n        /* \"Security/Reentrancy.sol\":473:497  require(result, \"ERROR\") */\n      tag_28\n      jumpi\n      mload(0x40)\n      0x08c379a000000000000000000000000000000000000000000000000000000000\n      dup2\n      mstore\n        /* \"#utility.yul\":740:742   */\n      0x20\n        /* \"Security/Reentrancy.sol\":473:497  require(result, \"ERROR\") */\n      0x04\n      dup3\n      add\n        /* \"#utility.yul\":722:743   */\n      mstore\n        /* \"#utility.yul\":779:780   */\n      0x05\n        /* \"#utility.yul\":759:777   */\n      0x24\n      dup3\n      add\n        /* \"#utility.yul\":752:781   */\n      mstore\n        /* \"#utility.yul\":817:824   */\n      0x4552524f52000000000000000000000000000000000000000000000000000000\n        /* \"#utility.yul\":797:815   */\n      0x44\n      dup3\n      add\n        /* \"#utility.yul\":790:825   */\n      mstore\n        /* \"#utility.yul\":842:860   */\n      0x64\n      add\n        /* \"Security/Reentrancy.sol\":473:497  require(result, \"ERROR\") */\n      mload(0x40)\n      dup1\n      swap2\n      sub\n      swap1\n      revert\n    tag_28:\n      pop\n      pop\n        /* \"Security/Reentrancy.sol\":513:523  msg.sender */\n      caller\n        /* \"Security/Reentrancy.sol\":527:528  0 */\n      0x00\n        /* \"Security/Reentrancy.sol\":504:524  balances[msg.sender] */\n      swap1\n      dup2\n      mstore\n      0x20\n      dup2\n      swap1\n      mstore\n      0x40\n      dup2\n      keccak256\n        /* \"Security/Reentrancy.sol\":504:528  balances[msg.sender] = 0 */\n      sstore\n        /* \"Security/Reentrancy.sol\":329:533  function withdraw() external {\r... */\n      jump\t// out\n        /* \"Security/Reentrancy.sol\":245:324  function deposit() external payable {\r... */\n    tag_21:\n        /* \"Security/Reentrancy.sol\":295:305  msg.sender */\n      caller\n        /* \"Security/Reentrancy.sol\":286:294  balances */\n      0x00\n        /* \"Security/Reentrancy.sol\":286:306  balances[msg.sender] */\n      swap1\n      dup2\n      mstore\n      0x20\n      dup2\n      swap1\n      mstore\n      0x40\n      dup2\n      keccak256\n        /* \"Security/Reentrancy.sol\":286:319  balances[msg.sender] += msg.value */\n      dup1\n      sload\n        /* \"Security/Reentrancy.sol\":310:319  msg.value */\n      callvalue\n      swap3\n        /* \"Security/Reentrancy.sol\":286:294  balances */\n      swap1\n        /* \"Security/Reentrancy.sol\":286:319  balances[msg.sender] += msg.value */\n      tag_33\n      swap1\n        /* \"Security/Reentrancy.sol\":310:319  msg.value */\n      dup5\n      swap1\n        /* \"Security/Reentrancy.sol\":286:319  balances[msg.sender] += msg.value */\n      tag_34\n      jump\t// in\n    tag_33:\n      swap1\n      swap2\n      sstore\n      pop\n      pop\n        /* \"Security/Reentrancy.sol\":245:324  function deposit() external payable {\r... */\n      jump\t// out\n        /* \"#utility.yul\":14:323   */\n    tag_9:\n        /* \"#utility.yul\":73:79   */\n      0x00\n        /* \"#utility.yul\":126:128   */\n      0x20\n        /* \"#utility.yul\":114:123   */\n      dup3\n        /* \"#utility.yul\":105:112   */\n      dup5\n        /* \"#utility.yul\":101:124   */\n      sub\n        /* \"#utility.yul\":97:129   */\n      slt\n        /* \"#utility.yul\":94:146   */\n      iszero\n      tag_37\n      jumpi\n        /* \"#utility.yul\":142:143   */\n      0x00\n        /* \"#utility.yul\":139:140   */\n      dup1\n        /* \"#utility.yul\":132:144   */\n      revert\n        /* \"#utility.yul\":94:146   */\n    tag_37:\n        /* \"#utility.yul\":181:190   */\n      dup2\n        /* \"#utility.yul\":168:191   */\n      calldataload\n        /* \"#utility.yul\":231:273   */\n      0xffffffffffffffffffffffffffffffffffffffff\n        /* \"#utility.yul\":224:229   */\n      dup2\n        /* \"#utility.yul\":220:274   */\n      and\n        /* \"#utility.yul\":213:218   */\n      dup2\n        /* \"#utility.yul\":210:275   */\n      eq\n        /* \"#utility.yul\":200:293   */\n      tag_38\n      jumpi\n        /* \"#utility.yul\":289:290   */\n      0x00\n        /* \"#utility.yul\":286:287   */\n      dup1\n        /* \"#utility.yul\":279:291   */\n      revert\n        /* \"#utility.yul\":200:293   */\n    tag_38:\n        /* \"#utility.yul\":312:317   */\n      swap4\n        /* \"#utility.yul\":14:323   */\n      swap3\n      pop\n      pop\n      pop\n      jump\t// out\n        /* \"#utility.yul\":1053:1335   */\n    tag_34:\n        /* \"#utility.yul\":1093:1096   */\n      0x00\n        /* \"#utility.yul\":1124:1125   */\n      dup3\n        /* \"#utility.yul\":1120:1126   */\n      not\n        /* \"#utility.yul\":1117:1118   */\n      dup3\n        /* \"#utility.yul\":1114:1127   */\n      gt\n        /* \"#utility.yul\":1111:1304   */\n      iszero\n      tag_43\n      jumpi\n        /* \"#utility.yul\":1160:1237   */\n      0x4e487b7100000000000000000000000000000000000000000000000000000000\n        /* \"#utility.yul\":1157:1158   */\n      0x00\n        /* \"#utility.yul\":1150:1238   */\n      mstore\n        /* \"#utility.yul\":1261:1265   */\n      0x11\n        /* \"#utility.yul\":1258:1259   */\n      0x04\n        /* \"#utility.yul\":1251:1266   */\n      mstore\n        /* \"#utility.yul\":1289:1293   */\n      0x24\n        /* \"#utility.yul\":1286:1287   */\n      0x00\n        /* \"#utility.yul\":1279:1294   */\n      revert\n        /* \"#utility.yul\":1111:1304   */\n    tag_43:\n      pop\n        /* \"#utility.yul\":1320:1329   */\n      add\n      swap1\n        /* \"#utility.yul\":1053:1335   */\n      jump\t// out\n\n    auxdata: 0xa26469706673582212200f4ff1a760355f2c392f67ffb956dc39d65f3041bc8c080e10c6b1dccb8b9e1464736f6c63430008070033\n}\n",
				"bytecode": {
					"linkReferences": {},
					"object": "6080604052610265806100136000396000f3fe60806040526004361061003f5760003560e01c806327e235e3146100445780633ccfd60b14610083578063c71daccb1461009a578063d0e30db0146100ad575b600080fd5b34801561005057600080fd5b5061007161005f3660046101b3565b60006020819052908152604090205481565b60405190815260200160405180910390f35b34801561008f57600080fd5b506100986100b5565b005b3480156100a657600080fd5b5047610071565b61009861018d565b3360008181526020819052604080822054905190929083908381818185875af1925050503d8060008114610105576040519150601f19603f3d011682016040523d82523d6000602084013e61010a565b606091505b5050905080610179576040517f08c379a000000000000000000000000000000000000000000000000000000000815260206004820152600560248201527f4552524f52000000000000000000000000000000000000000000000000000000604482015260640160405180910390fd5b505033600090815260208190526040812055565b33600090815260208190526040812080543492906101ac9084906101f0565b9091555050565b6000602082840312156101c557600080fd5b813573ffffffffffffffffffffffffffffffffffffffff811681146101e957600080fd5b9392505050565b6000821982111561022a577f4e487b7100000000000000000000000000000000000000000000000000000000600052601160045260246000fd5b50019056fea26469706673582212200f4ff1a760355f2c392f67ffb956dc39d65f3041bc8c080e10c6b1dccb8b9e1464736f6c63430008070033",
					"opcodes": "PUSH1 0x80 PUSH1 0x40 MSTORE PUSH2 0x265 DUP1 PUSH2 0x13 PUSH1 0x0 CODECOPY PUSH1 0x0 RETURN INVALID PUSH1 0x80 PUSH1 0x40 MSTORE PUSH1 0x4 CALLDATASIZE LT PUSH2 0x3F JUMPI PUSH1 0x0 CALLDATALOAD PUSH1 0xE0 SHR DUP1 PUSH4 0x27E235E3 EQ PUSH2 0x44 JUMPI DUP1 PUSH4 0x3CCFD60B EQ PUSH2 0x83 JUMPI DUP1 PUSH4 0xC71DACCB EQ PUSH2 0x9A JUMPI DUP1 PUSH4 0xD0E30DB0 EQ PUSH2 0xAD JUMPI JUMPDEST PUSH1 0x0 DUP1 REVERT JUMPDEST CALLVALUE DUP1 ISZERO PUSH2 0x50 JUMPI PUSH1 0x0 DUP1 REVERT JUMPDEST POP PUSH2 0x71 PUSH2 0x5F CALLDATASIZE PUSH1 0x4 PUSH2 0x1B3 JUMP JUMPDEST PUSH1 0x0 PUSH1 0x20 DUP2 SWAP1 MSTORE SWAP1 DUP2 MSTORE PUSH1 0x40 SWAP1 KECCAK256 SLOAD DUP2 JUMP JUMPDEST PUSH1 0x40 MLOAD SWAP1 DUP2 MSTORE PUSH1 0x20 ADD PUSH1 0x40 MLOAD DUP1 SWAP2 SUB SWAP1 RETURN JUMPDEST CALLVALUE DUP1 ISZERO PUSH2 0x8F JUMPI PUSH1 0x0 DUP1 REVERT JUMPDEST POP PUSH2 0x98 PUSH2 0xB5 JUMP JUMPDEST STOP JUMPDEST CALLVALUE DUP1 ISZERO PUSH2 0xA6 JUMPI PUSH1 0x0 DUP1 REVERT JUMPDEST POP SELFBALANCE PUSH2 0x71 JUMP JUMPDEST PUSH2 0x98 PUSH2 0x18D JUMP JUMPDEST CALLER PUSH1 0x0 DUP2 DUP2 MSTORE PUSH1 0x20 DUP2 SWAP1 MSTORE PUSH1 0x40 DUP1 DUP3 KECCAK256 SLOAD SWAP1 MLOAD SWAP1 SWAP3 SWAP1 DUP4 SWAP1 DUP4 DUP2 DUP2 DUP2 DUP6 DUP8 GAS CALL SWAP3 POP POP POP RETURNDATASIZE DUP1 PUSH1 0x0 DUP2 EQ PUSH2 0x105 JUMPI PUSH1 0x40 MLOAD SWAP2 POP PUSH1 0x1F NOT PUSH1 0x3F RETURNDATASIZE ADD AND DUP3 ADD PUSH1 0x40 MSTORE RETURNDATASIZE DUP3 MSTORE RETURNDATASIZE PUSH1 0x0 PUSH1 0x20 DUP5 ADD RETURNDATACOPY PUSH2 0x10A JUMP JUMPDEST PUSH1 0x60 SWAP2 POP JUMPDEST POP POP SWAP1 POP DUP1 PUSH2 0x179 JUMPI PUSH1 0x40 MLOAD PUSH32 0x8C379A000000000000000000000000000000000000000000000000000000000 DUP2 MSTORE PUSH1 0x20 PUSH1 0x4 DUP3 ADD MSTORE PUSH1 0x5 PUSH1 0x24 DUP3 ADD MSTORE PUSH32 0x4552524F52000000000000000000000000000000000000000000000000000000 PUSH1 0x44 DUP3 ADD MSTORE PUSH1 0x64 ADD PUSH1 0x40 MLOAD DUP1 SWAP2 SUB SWAP1 REVERT JUMPDEST POP POP CALLER PUSH1 0x0 SWAP1 DUP2 MSTORE PUSH1 0x20 DUP2 SWAP1 MSTORE PUSH1 0x40 DUP2 KECCAK256 SSTORE JUMP JUMPDEST CALLER PUSH1 0x0 SWAP1 DUP2 MSTORE PUSH1 0x20 DUP2 SWAP1 MSTORE PUSH1 0x40 DUP2 KECCAK256 DUP1 SLOAD CALLVALUE SWAP3 SWAP1 PUSH2 0x1AC SWAP1 DUP5 SWAP1 PUSH2 0x1F0 JUMP JUMPDEST SWAP1 SWAP2 SSTORE POP POP JUMP JUMPDEST PUSH1 0x0 PUSH1 0x20 DUP3 DUP5 SUB SLT ISZERO PUSH2 0x1C5 JUMPI PUSH1 0x0 DUP1 REVERT JUMPDEST DUP2 CALLDATALOAD PUSH20 0xFFFFFFFFFFFFFFFFFFFFFFFFFFFFFFFFFFFFFFFF DUP2 AND DUP2 EQ PUSH2 0x1E9 JUMPI PUSH1 0x0 DUP1 REVERT JUMPDEST SWAP4 SWAP3 POP POP POP JUMP JUMPDEST PUSH1 0x0 DUP3 NOT DUP3 GT ISZERO PUSH2 0x22A JUMPI PUSH32 0x4E487B7100000000000000000000000000000000000000000000000000000000 PUSH1 0x0 MSTORE PUSH1 0x11 PUSH1 0x4 MSTORE PUSH1 0x24 PUSH1 0x0 REVERT JUMPDEST POP ADD SWAP1 JUMP INVALID LOG2 PUSH5 0x6970667358 0x22 SLT KECCAK256 0xF 0x4F CALL 0xA7 PUSH1 0x35 0x5F 0x2C CODECOPY 0x2F PUSH8 0xFFB956DC39D65F30 COINBASE 0xBC DUP13 ADDMOD 0xE LT 0xC6 0xB1 0xDC 0xCB DUP12 SWAP15 EQ PUSH5 0x736F6C6343 STOP ADDMOD SMOD STOP CALLER "
				},
				"gasEstimates": {
					"creation": {
						"codeDepositCost": "122600",
						"executionCost": "147",
						"totalCost": "122747"
					},
					"external": {
						"balances(address)": "2441",
						"checkBalance()": "204",
						"deposit()": "24532",
						"withdraw()": "infinite"
					}
				},
				"methodIdentifiers": {
					"balances(address)": "27e235e3",
					"checkBalance()": "c71daccb",
					"deposit()": "d0e30db0",
					"withdraw()": "3ccfd60b"
				}
			},
			"storageLayout": {
				"storage": [
					{
						"astId": 5,
						"contract": "Security/Reentrancy.sol:Bank",
						"label": "balances",
						"offset": 0,
						"slot": "0",
						"type": "t_mapping(t_address,t_uint256)"
					}
				],
				"types": {
					"t_address": {
						"encoding": "inplace",
						"label": "address",
						"numberOfBytes": "20"
					},
					"t_mapping(t_address,t_uint256)": {
						"encoding": "mapping",
						"key": "t_address",
						"label": "mapping(address => uint256)",
						"numberOfBytes": "32",
						"value": "t_uint256"
					},
					"t_uint256": {
						"encoding": "inplace",
						"label": "uint256",
						"numberOfBytes": "32"
					}
				}
			},
			"userdoc": {
				"kind": "user",
				"methods": {},
				"version": 1
			}
		}
	}
}